:020000040800F2
:100000000000022005100008A90F0008AB0F00082F
:10001000AD0F0008AF0F0008B10F0008000000008E
:1000200000000000000000000000000011030008B4
:10003000B30F000800000000A1030008B50F00087E
:1000400055100008551000085510000855100008FC
:1000500055100008551000085510000855100008EC
:1000600055100008551000085510000855100008DC
:1000700055100008551000085510000855100008CC
:1000800055100008551000085510000855100008BC
:1000900055100008551000085510000855100008AC
:1000A000551000085510000855100008551000089C
:1000B000551000085510000855100008551000088C
:1000C000551000085510000855100008551000087C
:1000D000551000085510000855100008551000086C
:1000E000551000085510000855100008551000085C
:1000F000551000085510000855100008551000084C
:10010000551000085510000855100008551000083B
:10011000551000085510000855100008551000082B
:10012000551000085510000855100008551000081B
:10013000551000085510000855100008551000080B
:1001400055100008551000085510000855100008FB
:1001500055100008551000085510000855100008EB
:1001600055100008551000085510000855100008DB
:100170005510000855100008551000080000000038
:0801800055100008551000089D
:1001900010B5054C237833B9044B13B10448AFF3C1
:1001A00000800123237010BD080000200000000023
:1001B000A010000808B5034B1BB103490348AFF377
:1001C000008008BD000000000C000020A010000806
:1001D00008B500F00FFE012803D0BDE8084000F08C
:1001E00011B908BD00F1080343604FF0FF32C3604E
:1001F000036100238260036070470023036170473E
:1002000043684B609A688A609A6851609960036895
:1002100008610133036070470A68531C30B50AD186
:1002200003695A684A6091608B605960036808618D
:100230000133036030BD00F108035C682568AA4201
:10024000EFD32346F9E74168826803698A608268D0
:1002500051605968884208BF5A60002202611A68DA
:10026000013A1A601868704782B0002301930D4B61
:100270001B68013308D04FF0500383F31188BFF39C
:100280006F8FBFF34F8FFEE74FF0500383F311885A
:10029000BFF36F8FBFF34F8F019B002BFCD002B0D9
:1002A000704700BF0000002008480068006880F325
:1002B00008884FF0000080F3148862B661B6BFF37F
:1002C0004F8FBFF36F8F00DF00BF000008ED00E02D
:1002D000DFF80C00016841F4700101607047000014
:1002E00088ED00E04FF0807340F8043C074B40F885
:1002F0000C3C21F001016FF0020340F8081C40F8AB
:10030000202C40F8243C4438704700BF69020008A4
:10031000074B19680868B0E8F04F80F30988BFF30D
:100320006F8F4FF0000080F311887047AFF30080AB
:10033000443C00204FF0500383F31188BFF36F8FCC
:10034000BFF34F8F0A4A13680133012B13600DD19D
:10035000084B1B6813F0FF0F08D04FF0500383F3D6
:100360001188BFF36F8FBFF34F8FFEE7704700BF59
:100370000000002004ED00E0084A136843B94FF084
:10038000500383F31188BFF36F8FBFF34F8FFEE7E6
:10039000013B13600BB983F3118870470000002004
:1003A000EFF30980BFF36F8F154B1A681EF0100F23
:1003B00008BF20ED108A20E9F04F10602DE90900F8
:1003C0004FF0500080F31188BFF34F8FBFF36F8F52
:1003D00000F0D4FC4FF0000080F3118809BC1968CC
:1003E0000868B0E8F04F1EF0100F08BFB0EC108A9C
:1003F00080F30988BFF36F8F704700BFAFF30080B1
:10040000443C002008B54FF0500383F31188BFF33C
:100410006F8FBFF34F8F00F089FB18B1034B4FF084
:1004200080521A60002383F3118808BD04ED00E0B8
:10043000084A0949002313600B60084B4FF47A7196
:100440001B68B3FBF1F30649013B0B600723136004
:10045000704700BF10E000E018E000E0040000205A
:1004600014E000E0394B3A4A13B51968914208D1BB
:100470004FF0500383F31188BFF36F8FBFF34F8F9B
:10048000FEE71A68334B9A4208D14FF0500383F3CA
:100490001188BFF36F8FBFF34F8FFEE72E4B1A7893
:1004A000D2B20192FF221A701B782C4ADBB28DF86F
:1004B00003309DF8033003F050031370284B0722DC
:1004C0001A6000219DF80300000602F1FF340DD4EC
:1004D00001B11A601A68032A11D04FF0500383F358
:1004E0001188BFF36F8FBFF34F8FFEE79DF8032096
:1004F0005200D2B28DF8032001212246E2E7120217
:1005000002F4E0621A60019B134ADBB21370154BD0
:100510001A6842F470021A601A6842F070421A6057
:10052000FFF786FF104B00241C60FFF7D1FE0F4A37
:10053000136843F040431360FFF7B6FE00F01EFC63
:10054000FFF792FE204602B010BD00BF00ED00E0B4
:1005500071C20F4170C20F4100E400E0240000208E
:100560002800002020ED00E00000002034EF00E033
:1005700010B50F4B1A68824218D35C68191988426B
:1005800001BF4168184609195960446801198A4237
:1005900007D1084909688A421FBF516812680919C2
:1005A00041609842026018BF186010BD1346E1E731
:1005B0003C3C00202C0000202DE9F041044600F0D6
:1005C000ADFA3E493E4D0B680BBB3E4A56071FBF76
:1005D000D01D20F0070002F570531B1A14BF02460D
:1005E0004FF470531344083B23F00703364E0B605F
:1005F00000207060326058601860981A1360334BA6
:1006000050601860324B18604FF000432B602F6829
:10061000274216D1002C41D004F1080358071CBF13
:1006200023F00703083363B1294A1668B3429046A2
:1006300007D8254A15686868834204D809688D423E
:1006400007D100242AE02C68002CF7D02A46254642
:10065000F1E7296814681160C21A102A0FD9E81846
:10066000410708D04FF0500383F31188BFF36F8F19
:10067000BFF34F8FFEE742606B60FFF779FF1349CE
:100680006B680868F61A1F4386424FF00003C8F8EB
:10069000006038BF0E6008346F602B6000F0D6FA3F
:1006A000630708D04FF0500383F31188BFF36F8FB7
:1006B000BFF34F8FFEE72046BDE8F0812C000020FD
:1006C000303C0020300000203C3C0020383C002022
:1006D000343C002010B5044670B3184A50F8043C6E
:1006E0001268134208D14FF0500383F31188BFF30F
:1006F0006F8FBFF34F8FFEE750F8081C41B14FF0EA
:10070000500383F31188BFF36F8FBFF34F8FFEE762
:1007100023EA020340F8043C00F000FA084A54F8C7
:10072000043C1168A4F108000B441360FFF720FF9C
:10073000BDE8104000F08ABA10BD00BF303C002078
:10074000343C00202DE9F0410646FFF7F3FD2D4B28
:100750002D4C1A682D4F01321A602568002D45D1A5
:1007600026601B68012B1CD178191435FFF73AFD60
:100770008C2DF9D1DFF8C080254D4046FFF732FDC2
:100780002846FFF72FFD2348FFF72CFD2248FFF7EF
:1007900029FD2248FFF726FD214BC3F80080214B9D
:1007A0001D60214A136801331360204AF36A1168FF
:1007B00014208B4200FB037006F1040188BF136014
:1007C000FFF71EFDFFF7D8FD194B1B6863B12368C7
:1007D000DA6AF36A9A4207D2164B4FF080521A60D7
:1007E000BFF34F8FBFF36F8FBDE8F081104B1B68D5
:1007F000002BD6D12368DA6AF36A9A4298BF266042
:10080000CFE700BFDC3C0020443C0020503C0020EF
:10081000083D0020243D0020503D00203C3D0020AC
:10082000483C00204C3C0020EC3C0020F03C0020E8
:10083000383D002004ED00E0F43C0020064A136837
:100840001968064B19B94FF0FF321A6070471268E9
:10085000D268D2685268F8E7483C00201C3D00206E
:100860002DE9F0470A9C099F266B02F18042013A6C
:1008700006EB8206994680464B1E26F0070604F1D9
:1008800034020F31587802F8010B13F8010F08B148
:100890008B42F7D1089D062D28BF06254FF0000A90
:1008A000E562201D84F843A0FFF7A7FCC5F107050A
:1008B00004F11800FFF7A1FCC4F844A02461A5616D
:1008C000646284F848A04A4641463046FFF70AFD74
:1008D000206007B13C60BDE8F08710B590F8493062
:1008E00004463BB9006BFFF7F5FE2046BDE810401B
:1008F000FFF7F0BE012BF9D0022B08D04FF05003C8
:1009000083F31188BFF36F8FBFF34F8FFEE710BDE6
:1009100080B5DFF85C80124F124C134D236863B929
:10092000124B1B68012BF8D94FF08053C8F80030E8
:10093000BFF34F8FBFF36F8FEEE7FFF7FBFCFB6852
:10094000DE68301DFFF77FFC2B68013B2B602368BE
:10095000013B2360FFF710FD3046FFF7BEFFDDE7E8
:10096000503D0020E03C0020DC3C0020503C0020BA
:1009700004ED00E0F8B5164B164D1E6804462868D5
:1009800004300F46FFF75FFC631C2B4607D137B1DD
:10099000296811480431BDE8F840FFF731BC344400
:1009A0001A68A642546007D90C4A10681968BDE855
:1009B000F8400431FFF730BC094A10681968043167
:1009C000FFF72AFC074B1A68944238BF1C60F8BD39
:1009D000643D0020443C00203C3D00204C3C002075
:1009E000483C00201C3D002070B586B00B9D0C9C3F
:1009F00045B94FF0500383F31188BFF36F8FBFF3F6
:100A00004F8FFEE744B94FF0500383F31188BFF3D3
:100A10006F8FBFF34F8FFEE74C260496049E4C2E3B
:100A200008D04FF0500383F31188BFF36F8FBFF3EB
:100A30004F8FFEE72563022584F8495005AD0195E7
:100A40000A9D02940095FFF70BFF2046FFF77AFE00
:100A5000059806B070BD2DE9F043074685B09000BB
:100A6000884616469946FFF7A7FD0546E8B14C2093
:100A7000FFF7A2FD0446A8B1002380F849300D9B82
:100A8000056301930C9B0290009332464B4641460E
:100A90003846FFF7E5FE2046FFF754FE012005B07B
:100AA000BDE8F0832846FFF715FE4FF0FF30F6E76C
:100AB00010B588B0002407AA06A905A805940694D5
:100AC00000F0A8F9059B0293069B0193009423462E
:100AD000079A0D490D48FFF787FF90B14FF050037B
:100AE00083F31188BFF36F8FBFF34F8F084B4FF025
:100AF000FF321A60074B01221A60074B1C60FFF798
:100B0000B1FC08B010BD00BFB81000081109000802
:100B10001C3D0020383D0020643D0020024A13683F
:100B200001331360704700BFE83C00202DE9F84F07
:100B30003B4B1B68002B51D13A4B1C6801341C60A5
:100B4000BCB9394B1A68126842B14FF0500383F3B5
:100B50001188BFF36F8FBFF34F8FFEE7334A1968D9
:100B6000106818601160324A136801331360FFF790
:100B700065FE304D304F2B689C424FF0000B3CD34C
:100B8000DFF8A480DFF8C090D8F80020126862BBBC
:100B90004FF0FF322A6030E006F1040A5046FFF7BA
:100BA00052FBB16A19B106F11800FFF74CFBF06A6D
:100BB000D9F80010214B88424FF0140288BFC9F8C1
:100BC0000000514602FB0030FFF71AFB3868F16A5B
:100BD000C26A914228BF4FF0010BD5E7184A13684B
:100BE000013313604FF0000B11E0D8F80020D268F9
:100BF000D66871688C42CFD229603A680F4BD16AAF
:100C000014224A439A58022A28BF4FF0010B0D4A7A
:100C10001268002A18BF4FF0010B5846BDE8F88F44
:100C2000E83C0020643D0020483C00204C3C002073
:100C3000203D00201C3D0020443C0020503C002072
:100C4000E43C0020683D0020F03C00202DE9F0410C
:100C50002F4C236843B94FF0500383F31188BFF33F
:100C60006F8FBFF34F8FFEE7FFF764FB2368013BF5
:100C7000236024682CB10024FFF77EFB2046BDE8EA
:100C8000F081244B1B68002BF5D0234E234FDFF857
:100C9000A0803368E3B90CB1FFF7D0FD204D2C687C
:100CA00044B1204E0127FFF741FF00B13760013CFE
:100CB000F9D12C601B4B1B68002BDCD01A4B4FF07A
:100CC00080521A60BFF34F8FBFF36F8F0124D3E7B9
:100CD000F368DC68251D04F11800FFF7B4FA284614
:100CE000FFF7B1FAE36A3A681420934200FB0380ED
:100CF000294688BF3B60FFF783FA0C4BE26A1B680A
:100D0000DB6A9A4222BF074B01221A60C1E700BF8B
:100D1000E83C0020DC3C0020243D0020F03C00208A
:100D2000E43C0020683D002004ED00E0443C00204D
:100D3000503C002008B540B90E4B4FF080521A606D
:100D4000BFF34F8FBFF36F8F08BD0B4B196841B1D5
:100D50004FF0500383F31188BFF36F8FBFF34F8FB2
:100D6000FEE7FFF7DBFEFFF705FEFFF76FFF00284A
:100D7000E2D008BD04ED00E0E83C0020184B1A6802
:100D8000184BF0B512B101221A60F0BD164D1A6071
:100D9000164A2B681427164607FB03F150185458BF
:100DA0008CB144680831646844600A44944204BFCA
:100DB00062684260142202FB03625268D1680C4AE6
:100DC00011602B60F0BD43B94FF0500383F31188DD
:100DD000BFF36F8FBFF34F8FFEE7013BDCE700BF30
:100DE000E83C0020683D0020F03C0020503C002002
:100DF000443C0020054B1B6833B1054B1B68002B9E
:100E00000CBF02200020704701207047383D0020B1
:100E1000E83C0020034B0360034B0B60802313600E
:100E2000704700BF6C3F00206C3D002008B5094CA6
:100E3000636943F4805363614FF4FA70FFF77AFFFC
:100E4000636923F48053636140F2DC50FFF772FF63
:100E5000EEE700BF000C024008B50B4C4FF4FA70EF
:100E6000FFF768FF636943F4005363614FF4FA705E
:100E7000FFF760FF636923F4005363614FF47A70F6
:100E8000FFF758FFEAE700BF000C024008B50B4C23
:100E90004FF47A70FFF74EFF636943F48043636158
:100EA0004FF4FA70FFF746FF636923F480436361F0
:100EB0004FF4FA70FFF73EFFEAE700BF000C024074
:100EC00008B5094C40F2DC50FFF734FF636943F486
:100ED000004363614FF4FA70FFF72CFF636923F45A
:100EE00000436361EEE700BF000C0240024A136B4F
:100EF00043F008031363704700380240084B1A6838
:100F000042F080721A601A6842F080621A601A68B1
:100F100042F080521A601A6842F080421A607047AC
:100F2000000C024007B500240125FFF7DFFFFFF7A3
:100F3000E5FF234680221349019400951248FFF7EC
:100F40008AFD234680221149019400951048FFF73D
:100F500082FD234680220F49019400950E48FFF739
:100F60007AFD802223460D49019400950C48FFF735
:100F700072FDFFF79DFD0B4A536943F40043536133
:100F8000FAE700BFBD1000082D0E0008CD100008C4
:100F9000590E0008DE1000088D0E0008EC10000845
:100FA000C10E0008000C02407047FEE7FEE7FEE7B6
:100FB000FEE77047FFF70CB90F49D1F8883043F4CA
:100FC0007003C1F888300D4B1A68002042F001020E
:100FD0001A6098601A6822F0847222F480321A60D3
:100FE000074A5A601A6822F480221A60D8604FF0CB
:100FF00000638B60704700BF00ED00E000380240E6
:1010000010300024DFF834D0002103E00C4B5B5893
:10101000435004310B480C4B42189A42F6D30B4A0A
:1010200002E0002342F8043B094B9A42F9D3FFF750
:10103000C3FF00F011F8FFF775FF704700000220B2
:101040000411000800000020080000200800002013
:10105000B83F0020FEE7000070B50D4E0D4CA41BFC
:10106000A4100025A54209D10B4E0C4C00F018F835
:10107000A41BA4100025A54205D170BD56F825304B
:1010800098470135EEE756F8253098470135F2E7E5
:10109000FC100008FC100008FC10000800110008FB
:1010A000F8B500BFF8BC08BC9E467047F8B500BF55
:0810B000F8BC08BC9E46704725
:1010B80049444C4500626C696E6B5F4C45445F4720
:1010C8005245454E00626C696E6B5F4C45445F4FFC
:1010D80052414E474500626C696E6B5F4C45445FF8
:1010E80052454400626C696E6B5F4C45445F424CEC
:0410F800554500005A
:0410FC00B501000832
:041100009101000851
:08110400AAAAAAAA0024F40023
:0400000508001005DA
:00000001FF
